{
    "contractName": "NFT",
    "abi": [
        {
            "inputs": [],
            "stateMutability": "nonpayable",
            "type": "constructor"
        },
        {
            "anonymous": false,
            "inputs": [
                {
                    "indexed": true,
                    "internalType": "address",
                    "name": "owner",
                    "type": "address"
                },
                {
                    "indexed": true,
                    "internalType": "address",
                    "name": "approved",
                    "type": "address"
                },
                {
                    "indexed": true,
                    "internalType": "uint256",
                    "name": "tokenId",
                    "type": "uint256"
                }
            ],
            "name": "Approval",
            "type": "event"
        },
        {
            "anonymous": false,
            "inputs": [
                {
                    "indexed": true,
                    "internalType": "address",
                    "name": "owner",
                    "type": "address"
                },
                {
                    "indexed": true,
                    "internalType": "address",
                    "name": "operator",
                    "type": "address"
                },
                {
                    "indexed": false,
                    "internalType": "bool",
                    "name": "approved",
                    "type": "bool"
                }
            ],
            "name": "ApprovalForAll",
            "type": "event"
        },
        {
            "anonymous": false,
            "inputs": [
                {
                    "indexed": true,
                    "internalType": "address",
                    "name": "from",
                    "type": "address"
                },
                {
                    "indexed": true,
                    "internalType": "address",
                    "name": "to",
                    "type": "address"
                },
                {
                    "indexed": true,
                    "internalType": "uint256",
                    "name": "tokenId",
                    "type": "uint256"
                }
            ],
            "name": "Transfer",
            "type": "event"
        },
        {
            "inputs": [
                {
                    "internalType": "address",
                    "name": "to",
                    "type": "address"
                },
                {
                    "internalType": "uint256",
                    "name": "tokenId",
                    "type": "uint256"
                }
            ],
            "name": "approve",
            "outputs": [],
            "stateMutability": "nonpayable",
            "type": "function"
        },
        {
            "inputs": [
                {
                    "internalType": "address",
                    "name": "owner",
                    "type": "address"
                }
            ],
            "name": "balanceOf",
            "outputs": [
                {
                    "internalType": "uint256",
                    "name": "",
                    "type": "uint256"
                }
            ],
            "stateMutability": "view",
            "type": "function",
            "constant": true
        },
        {
            "inputs": [
                {
                    "internalType": "uint256",
                    "name": "tokenId",
                    "type": "uint256"
                }
            ],
            "name": "getApproved",
            "outputs": [
                {
                    "internalType": "address",
                    "name": "",
                    "type": "address"
                }
            ],
            "stateMutability": "view",
            "type": "function",
            "constant": true
        },
        {
            "inputs": [
                {
                    "internalType": "address",
                    "name": "owner",
                    "type": "address"
                },
                {
                    "internalType": "address",
                    "name": "operator",
                    "type": "address"
                }
            ],
            "name": "isApprovedForAll",
            "outputs": [
                {
                    "internalType": "bool",
                    "name": "",
                    "type": "bool"
                }
            ],
            "stateMutability": "view",
            "type": "function",
            "constant": true
        },
        {
            "inputs": [],
            "name": "name",
            "outputs": [
                {
                    "internalType": "string",
                    "name": "",
                    "type": "string"
                }
            ],
            "stateMutability": "view",
            "type": "function",
            "constant": true
        },
        {
            "inputs": [
                {
                    "internalType": "uint256",
                    "name": "tokenId",
                    "type": "uint256"
                }
            ],
            "name": "ownerOf",
            "outputs": [
                {
                    "internalType": "address",
                    "name": "",
                    "type": "address"
                }
            ],
            "stateMutability": "view",
            "type": "function",
            "constant": true
        },
        {
            "inputs": [
                {
                    "internalType": "address",
                    "name": "from",
                    "type": "address"
                },
                {
                    "internalType": "address",
                    "name": "to",
                    "type": "address"
                },
                {
                    "internalType": "uint256",
                    "name": "tokenId",
                    "type": "uint256"
                }
            ],
            "name": "safeTransferFrom",
            "outputs": [],
            "stateMutability": "nonpayable",
            "type": "function"
        },
        {
            "inputs": [
                {
                    "internalType": "address",
                    "name": "from",
                    "type": "address"
                },
                {
                    "internalType": "address",
                    "name": "to",
                    "type": "address"
                },
                {
                    "internalType": "uint256",
                    "name": "tokenId",
                    "type": "uint256"
                },
                {
                    "internalType": "bytes",
                    "name": "data",
                    "type": "bytes"
                }
            ],
            "name": "safeTransferFrom",
            "outputs": [],
            "stateMutability": "nonpayable",
            "type": "function"
        },
        {
            "inputs": [
                {
                    "internalType": "address",
                    "name": "operator",
                    "type": "address"
                },
                {
                    "internalType": "bool",
                    "name": "approved",
                    "type": "bool"
                }
            ],
            "name": "setApprovalForAll",
            "outputs": [],
            "stateMutability": "nonpayable",
            "type": "function"
        },
        {
            "inputs": [
                {
                    "internalType": "bytes4",
                    "name": "interfaceId",
                    "type": "bytes4"
                }
            ],
            "name": "supportsInterface",
            "outputs": [
                {
                    "internalType": "bool",
                    "name": "",
                    "type": "bool"
                }
            ],
            "stateMutability": "view",
            "type": "function",
            "constant": true
        },
        {
            "inputs": [],
            "name": "symbol",
            "outputs": [
                {
                    "internalType": "string",
                    "name": "",
                    "type": "string"
                }
            ],
            "stateMutability": "view",
            "type": "function",
            "constant": true
        },
        {
            "inputs": [
                {
                    "internalType": "address",
                    "name": "from",
                    "type": "address"
                },
                {
                    "internalType": "address",
                    "name": "to",
                    "type": "address"
                },
                {
                    "internalType": "uint256",
                    "name": "tokenId",
                    "type": "uint256"
                }
            ],
            "name": "transferFrom",
            "outputs": [],
            "stateMutability": "nonpayable",
            "type": "function"
        },
        {
            "inputs": [
                {
                    "internalType": "address",
                    "name": "to",
                    "type": "address"
                },
                {
                    "internalType": "string",
                    "name": "uri",
                    "type": "string"
                }
            ],
            "name": "mint",
            "outputs": [
                {
                    "internalType": "uint256",
                    "name": "",
                    "type": "uint256"
                }
            ],
            "stateMutability": "nonpayable",
            "type": "function"
        },
        {
            "inputs": [
                {
                    "internalType": "uint256",
                    "name": "tokenId",
                    "type": "uint256"
                }
            ],
            "name": "tokenURI",
            "outputs": [
                {
                    "internalType": "string",
                    "name": "",
                    "type": "string"
                }
            ],
            "stateMutability": "view",
            "type": "function",
            "constant": true
        }
    ],
    "bytecode": "0x60806040523480156200001157600080fd5b506040518060400160405280600381526020017f4e465400000000000000000000000000000000000000000000000000000000008152506040518060400160405280600381526020017f2424240000000000000000000000000000000000000000000000000000000000815250816000908051906020019062000096929190620000b8565b508060019080519060200190620000af929190620000b8565b505050620001cc565b828054620000c69062000197565b90600052602060002090601f016020900481019282620000ea576000855562000136565b82601f106200010557805160ff191683800117855562000136565b8280016001018555821562000136579182015b828111156200013557825182559160200191906001019062000118565b5b50905062000145919062000149565b5090565b5b80821115620001645760008160009055506001016200014a565b5090565b7f4e487b7100000000000000000000000000000000000000000000000000000000600052602260045260246000fd5b60006002820490506001821680620001b057607f821691505b602082108103620001c657620001c562000168565b5b50919050565b6128a080620001dc6000396000f3fe608060405234801561001057600080fd5b50600436106100ea5760003560e01c806370a082311161008c578063b88d4fde11610066578063b88d4fde1461025b578063c87b56dd14610277578063d0def521146102a7578063e985e9c5146102d7576100ea565b806370a08231146101f157806395d89b4114610221578063a22cb4651461023f576100ea565b8063095ea7b3116100c8578063095ea7b31461016d57806323b872dd1461018957806342842e0e146101a55780636352211e146101c1576100ea565b806301ffc9a7146100ef57806306fdde031461011f578063081812fc1461013d575b600080fd5b61010960048036038101906101049190611872565b610307565b60405161011691906118ba565b60405180910390f35b6101276103e9565b604051610134919061196e565b60405180910390f35b610157600480360381019061015291906119c6565b61047b565b6040516101649190611a34565b60405180910390f35b61018760048036038101906101829190611a7b565b6104c1565b005b6101a3600480360381019061019e9190611abb565b6105d8565b005b6101bf60048036038101906101ba9190611abb565b610638565b005b6101db60048036038101906101d691906119c6565b610658565b6040516101e89190611a34565b60405180910390f35b61020b60048036038101906102069190611b0e565b610709565b6040516102189190611b4a565b60405180910390f35b6102296107c0565b604051610236919061196e565b60405180910390f35b61025960048036038101906102549190611b91565b610852565b005b61027560048036038101906102709190611d06565b610868565b005b610291600480360381019061028c91906119c6565b6108ca565b60405161029e919061196e565b60405180910390f35b6102c160048036038101906102bc9190611e2a565b6108dc565b6040516102ce9190611b4a565b60405180910390f35b6102f160048036038101906102ec9190611e86565b610914565b6040516102fe91906118ba565b60405180910390f35b60007f80ac58cd000000000000000000000000000000000000000000000000000000007bffffffffffffffffffffffffffffffffffffffffffffffffffffffff1916827bffffffffffffffffffffffffffffffffffffffffffffffffffffffff191614806103d257507f5b5e139f000000000000000000000000000000000000000000000000000000007bffffffffffffffffffffffffffffffffffffffffffffffffffffffff1916827bffffffffffffffffffffffffffffffffffffffffffffffffffffffff1916145b806103e257506103e1826109a8565b5b9050919050565b6060600080546103f890611ef5565b80601f016020809104026020016040519081016040528092919081815260200182805461042490611ef5565b80156104715780601f1061044657610100808354040283529160200191610471565b820191906000526020600020905b81548152906001019060200180831161045457829003601f168201915b5050505050905090565b600061048682610a12565b6004600083815260200190815260200160002060009054906101000a900473ffffffffffffffffffffffffffffffffffffffff169050919050565b60006104cc82610658565b90508073ffffffffffffffffffffffffffffffffffffffff168373ffffffffffffffffffffffffffffffffffffffff160361053c576040517f08c379a000000000000000000000000000000000000000000000000000000000815260040161053390611f98565b60405180910390fd5b8073ffffffffffffffffffffffffffffffffffffffff1661055b610a5d565b73ffffffffffffffffffffffffffffffffffffffff16148061058a575061058981610584610a5d565b610914565b5b6105c9576040517f08c379a00000000000000000000000000000000000000000000000000000000081526004016105c09061202a565b60405180910390fd5b6105d38383610a65565b505050565b6105e96105e3610a5d565b82610b1e565b610628576040517f08c379a000000000000000000000000000000000000000000000000000000000815260040161061f906120bc565b60405180910390fd5b610633838383610bb3565b505050565b61065383838360405180602001604052806000815250610868565b505050565b6000806002600084815260200190815260200160002060009054906101000a900473ffffffffffffffffffffffffffffffffffffffff169050600073ffffffffffffffffffffffffffffffffffffffff168173ffffffffffffffffffffffffffffffffffffffff1603610700576040517f08c379a00000000000000000000000000000000000000000000000000000000081526004016106f790612128565b60405180910390fd5b80915050919050565b60008073ffffffffffffffffffffffffffffffffffffffff168273ffffffffffffffffffffffffffffffffffffffff1603610779576040517f08c379a0000000000000000000000000000000000000000000000000000000008152600401610770906121ba565b60405180910390fd5b600360008373ffffffffffffffffffffffffffffffffffffffff1673ffffffffffffffffffffffffffffffffffffffff168152602001908152602001600020549050919050565b6060600180546107cf90611ef5565b80601f01602080910402602001604051908101604052809291908181526020018280546107fb90611ef5565b80156108485780601f1061081d57610100808354040283529160200191610848565b820191906000526020600020905b81548152906001019060200180831161082b57829003601f168201915b5050505050905090565b61086461085d610a5d565b8383610e19565b5050565b610879610873610a5d565b83610b1e565b6108b8576040517f08c379a00000000000000000000000000000000000000000000000000000000081526004016108af906120bc565b60405180910390fd5b6108c484848484610f85565b50505050565b60606108d582610fe1565b9050919050565b60006108e860076110f3565b60006108f46007611109565b90506109008482611117565b61090a81846112f0565b8091505092915050565b6000600560008473ffffffffffffffffffffffffffffffffffffffff1673ffffffffffffffffffffffffffffffffffffffff16815260200190815260200160002060008373ffffffffffffffffffffffffffffffffffffffff1673ffffffffffffffffffffffffffffffffffffffff16815260200190815260200160002060009054906101000a900460ff16905092915050565b60007f01ffc9a7000000000000000000000000000000000000000000000000000000007bffffffffffffffffffffffffffffffffffffffffffffffffffffffff1916827bffffffffffffffffffffffffffffffffffffffffffffffffffffffff1916149050919050565b610a1b81611364565b610a5a576040517f08c379a0000000000000000000000000000000000000000000000000000000008152600401610a5190612128565b60405180910390fd5b50565b600033905090565b816004600083815260200190815260200160002060006101000a81548173ffffffffffffffffffffffffffffffffffffffff021916908373ffffffffffffffffffffffffffffffffffffffff160217905550808273ffffffffffffffffffffffffffffffffffffffff16610ad883610658565b73ffffffffffffffffffffffffffffffffffffffff167f8c5be1e5ebec7d5bd14f71427d1e84f3dd0314c0f7b2291e5b200ac8c7c3b92560405160405180910390a45050565b600080610b2a83610658565b90508073ffffffffffffffffffffffffffffffffffffffff168473ffffffffffffffffffffffffffffffffffffffff161480610b6c5750610b6b8185610914565b5b80610baa57508373ffffffffffffffffffffffffffffffffffffffff16610b928461047b565b73ffffffffffffffffffffffffffffffffffffffff16145b91505092915050565b8273ffffffffffffffffffffffffffffffffffffffff16610bd382610658565b73ffffffffffffffffffffffffffffffffffffffff1614610c29576040517f08c379a0000000000000000000000000000000000000000000000000000000008152600401610c209061224c565b60405180910390fd5b600073ffffffffffffffffffffffffffffffffffffffff168273ffffffffffffffffffffffffffffffffffffffff1603610c98576040517f08c379a0000000000000000000000000000000000000000000000000000000008152600401610c8f906122de565b60405180910390fd5b610ca38383836113d0565b610cae600082610a65565b6001600360008573ffffffffffffffffffffffffffffffffffffffff1673ffffffffffffffffffffffffffffffffffffffff1681526020019081526020016000206000828254610cfe919061232d565b925050819055506001600360008473ffffffffffffffffffffffffffffffffffffffff1673ffffffffffffffffffffffffffffffffffffffff1681526020019081526020016000206000828254610d559190612361565b92505081905550816002600083815260200190815260200160002060006101000a81548173ffffffffffffffffffffffffffffffffffffffff021916908373ffffffffffffffffffffffffffffffffffffffff160217905550808273ffffffffffffffffffffffffffffffffffffffff168473ffffffffffffffffffffffffffffffffffffffff167fddf252ad1be2c89b69c2b068fc378daa952ba7f163c4a11628f55a4df523b3ef60405160405180910390a4610e148383836113d5565b505050565b8173ffffffffffffffffffffffffffffffffffffffff168373ffffffffffffffffffffffffffffffffffffffff1603610e87576040517f08c379a0000000000000000000000000000000000000000000000000000000008152600401610e7e90612403565b60405180910390fd5b80600560008573ffffffffffffffffffffffffffffffffffffffff1673ffffffffffffffffffffffffffffffffffffffff16815260200190815260200160002060008473ffffffffffffffffffffffffffffffffffffffff1673ffffffffffffffffffffffffffffffffffffffff16815260200190815260200160002060006101000a81548160ff0219169083151502179055508173ffffffffffffffffffffffffffffffffffffffff168373ffffffffffffffffffffffffffffffffffffffff167f17307eab39ab6107e8899845ad3d59bd9653f200f220920489ca2b5937696c3183604051610f7891906118ba565b60405180910390a3505050565b610f90848484610bb3565b610f9c848484846113da565b610fdb576040517f08c379a0000000000000000000000000000000000000000000000000000000008152600401610fd290612495565b60405180910390fd5b50505050565b6060610fec82610a12565b600060066000848152602001908152602001600020805461100c90611ef5565b80601f016020809104026020016040519081016040528092919081815260200182805461103890611ef5565b80156110855780601f1061105a57610100808354040283529160200191611085565b820191906000526020600020905b81548152906001019060200180831161106857829003601f168201915b505050505090506000611096611561565b905060008151036110ab5781925050506110ee565b6000825111156110e05780826040516020016110c89291906124f1565b604051602081830303815290604052925050506110ee565b6110e984611578565b925050505b919050565b6001816000016000828254019250508190555050565b600081600001549050919050565b600073ffffffffffffffffffffffffffffffffffffffff168273ffffffffffffffffffffffffffffffffffffffff1603611186576040517f08c379a000000000000000000000000000000000000000000000000000000000815260040161117d90612561565b60405180910390fd5b61118f81611364565b156111cf576040517f08c379a00000000000000000000000000000000000000000000000000000000081526004016111c6906125cd565b60405180910390fd5b6111db600083836113d0565b6001600360008473ffffffffffffffffffffffffffffffffffffffff1673ffffffffffffffffffffffffffffffffffffffff168152602001908152602001600020600082825461122b9190612361565b92505081905550816002600083815260200190815260200160002060006101000a81548173ffffffffffffffffffffffffffffffffffffffff021916908373ffffffffffffffffffffffffffffffffffffffff160217905550808273ffffffffffffffffffffffffffffffffffffffff16600073ffffffffffffffffffffffffffffffffffffffff167fddf252ad1be2c89b69c2b068fc378daa952ba7f163c4a11628f55a4df523b3ef60405160405180910390a46112ec600083836113d5565b5050565b6112f982611364565b611338576040517f08c379a000000000000000000000000000000000000000000000000000000000815260040161132f9061265f565b60405180910390fd5b8060066000848152602001908152602001600020908051906020019061135f929190611763565b505050565b60008073ffffffffffffffffffffffffffffffffffffffff166002600084815260200190815260200160002060009054906101000a900473ffffffffffffffffffffffffffffffffffffffff1673ffffffffffffffffffffffffffffffffffffffff1614159050919050565b505050565b505050565b60006113fb8473ffffffffffffffffffffffffffffffffffffffff166115e0565b15611554578373ffffffffffffffffffffffffffffffffffffffff1663150b7a02611424610a5d565b8786866040518563ffffffff1660e01b815260040161144694939291906126d4565b6020604051808303816000875af192505050801561148257506040513d601f19601f8201168201806040525081019061147f9190612735565b60015b611504573d80600081146114b2576040519150601f19603f3d011682016040523d82523d6000602084013e6114b7565b606091505b5060008151036114fc576040517f08c379a00000000000000000000000000000000000000000000000000000000081526004016114f390612495565b60405180910390fd5b805181602001fd5b63150b7a0260e01b7bffffffffffffffffffffffffffffffffffffffffffffffffffffffff1916817bffffffffffffffffffffffffffffffffffffffffffffffffffffffff191614915050611559565b600190505b949350505050565b606060405180602001604052806000815250905090565b606061158382610a12565b600061158d611561565b905060008151116115ad57604051806020016040528060008152506115d8565b806115b784611603565b6040516020016115c89291906124f1565b6040516020818303038152906040525b915050919050565b6000808273ffffffffffffffffffffffffffffffffffffffff163b119050919050565b60606000820361164a576040518060400160405280600181526020017f3000000000000000000000000000000000000000000000000000000000000000815250905061175e565b600082905060005b6000821461167c57808061166590612762565b915050600a8261167591906127d9565b9150611652565b60008167ffffffffffffffff81111561169857611697611bdb565b5b6040519080825280601f01601f1916602001820160405280156116ca5781602001600182028036833780820191505090505b5090505b60008514611757576001826116e3919061232d565b9150600a856116f2919061280a565b60306116fe9190612361565b60f81b8183815181106117145761171361283b565b5b60200101907effffffffffffffffffffffffffffffffffffffffffffffffffffffffffffff1916908160001a905350600a8561175091906127d9565b94506116ce565b8093505050505b919050565b82805461176f90611ef5565b90600052602060002090601f01602090048101928261179157600085556117d8565b82601f106117aa57805160ff19168380011785556117d8565b828001600101855582156117d8579182015b828111156117d75782518255916020019190600101906117bc565b5b5090506117e591906117e9565b5090565b5b808211156118025760008160009055506001016117ea565b5090565b6000604051905090565b600080fd5b600080fd5b60007fffffffff0000000000000000000000000000000000000000000000000000000082169050919050565b61184f8161181a565b811461185a57600080fd5b50565b60008135905061186c81611846565b92915050565b60006020828403121561188857611887611810565b5b60006118968482850161185d565b91505092915050565b60008115159050919050565b6118b48161189f565b82525050565b60006020820190506118cf60008301846118ab565b92915050565b600081519050919050565b600082825260208201905092915050565b60005b8381101561190f5780820151818401526020810190506118f4565b8381111561191e576000848401525b50505050565b6000601f19601f8301169050919050565b6000611940826118d5565b61194a81856118e0565b935061195a8185602086016118f1565b61196381611924565b840191505092915050565b600060208201905081810360008301526119888184611935565b905092915050565b6000819050919050565b6119a381611990565b81146119ae57600080fd5b50565b6000813590506119c08161199a565b92915050565b6000602082840312156119dc576119db611810565b5b60006119ea848285016119b1565b91505092915050565b600073ffffffffffffffffffffffffffffffffffffffff82169050919050565b6000611a1e826119f3565b9050919050565b611a2e81611a13565b82525050565b6000602082019050611a496000830184611a25565b92915050565b611a5881611a13565b8114611a6357600080fd5b50565b600081359050611a7581611a4f565b92915050565b60008060408385031215611a9257611a91611810565b5b6000611aa085828601611a66565b9250506020611ab1858286016119b1565b9150509250929050565b600080600060608486031215611ad457611ad3611810565b5b6000611ae286828701611a66565b9350506020611af386828701611a66565b9250506040611b04868287016119b1565b9150509250925092565b600060208284031215611b2457611b23611810565b5b6000611b3284828501611a66565b91505092915050565b611b4481611990565b82525050565b6000602082019050611b5f6000830184611b3b565b92915050565b611b6e8161189f565b8114611b7957600080fd5b50565b600081359050611b8b81611b65565b92915050565b60008060408385031215611ba857611ba7611810565b5b6000611bb685828601611a66565b9250506020611bc785828601611b7c565b9150509250929050565b600080fd5b600080fd5b7f4e487b7100000000000000000000000000000000000000000000000000000000600052604160045260246000fd5b611c1382611924565b810181811067ffffffffffffffff82111715611c3257611c31611bdb565b5b80604052505050565b6000611c45611806565b9050611c518282611c0a565b919050565b600067ffffffffffffffff821115611c7157611c70611bdb565b5b611c7a82611924565b9050602081019050919050565b82818337600083830152505050565b6000611ca9611ca484611c56565b611c3b565b905082815260208101848484011115611cc557611cc4611bd6565b5b611cd0848285611c87565b509392505050565b600082601f830112611ced57611cec611bd1565b5b8135611cfd848260208601611c96565b91505092915050565b60008060008060808587031215611d2057611d1f611810565b5b6000611d2e87828801611a66565b9450506020611d3f87828801611a66565b9350506040611d50878288016119b1565b925050606085013567ffffffffffffffff811115611d7157611d70611815565b5b611d7d87828801611cd8565b91505092959194509250565b600067ffffffffffffffff821115611da457611da3611bdb565b5b611dad82611924565b9050602081019050919050565b6000611dcd611dc884611d89565b611c3b565b905082815260208101848484011115611de957611de8611bd6565b5b611df4848285611c87565b509392505050565b600082601f830112611e1157611e10611bd1565b5b8135611e21848260208601611dba565b91505092915050565b60008060408385031215611e4157611e40611810565b5b6000611e4f85828601611a66565b925050602083013567ffffffffffffffff811115611e7057611e6f611815565b5b611e7c85828601611dfc565b9150509250929050565b60008060408385031215611e9d57611e9c611810565b5b6000611eab85828601611a66565b9250506020611ebc85828601611a66565b9150509250929050565b7f4e487b7100000000000000000000000000000000000000000000000000000000600052602260045260246000fd5b60006002820490506001821680611f0d57607f821691505b602082108103611f2057611f1f611ec6565b5b50919050565b7f4552433732313a20617070726f76616c20746f2063757272656e74206f776e6560008201527f7200000000000000000000000000000000000000000000000000000000000000602082015250565b6000611f826021836118e0565b9150611f8d82611f26565b604082019050919050565b60006020820190508181036000830152611fb181611f75565b9050919050565b7f4552433732313a20617070726f76652063616c6c6572206973206e6f7420746f60008201527f6b656e206f776e6572206e6f7220617070726f76656420666f7220616c6c0000602082015250565b6000612014603e836118e0565b915061201f82611fb8565b604082019050919050565b6000602082019050818103600083015261204381612007565b9050919050565b7f4552433732313a2063616c6c6572206973206e6f7420746f6b656e206f776e6560008201527f72206e6f7220617070726f766564000000000000000000000000000000000000602082015250565b60006120a6602e836118e0565b91506120b18261204a565b604082019050919050565b600060208201905081810360008301526120d581612099565b9050919050565b7f4552433732313a20696e76616c696420746f6b656e2049440000000000000000600082015250565b60006121126018836118e0565b915061211d826120dc565b602082019050919050565b6000602082019050818103600083015261214181612105565b9050919050565b7f4552433732313a2061646472657373207a65726f206973206e6f74206120766160008201527f6c6964206f776e65720000000000000000000000000000000000000000000000602082015250565b60006121a46029836118e0565b91506121af82612148565b604082019050919050565b600060208201905081810360008301526121d381612197565b9050919050565b7f4552433732313a207472616e736665722066726f6d20696e636f72726563742060008201527f6f776e6572000000000000000000000000000000000000000000000000000000602082015250565b60006122366025836118e0565b9150612241826121da565b604082019050919050565b6000602082019050818103600083015261226581612229565b9050919050565b7f4552433732313a207472616e7366657220746f20746865207a65726f2061646460008201527f7265737300000000000000000000000000000000000000000000000000000000602082015250565b60006122c86024836118e0565b91506122d38261226c565b604082019050919050565b600060208201905081810360008301526122f7816122bb565b9050919050565b7f4e487b7100000000000000000000000000000000000000000000000000000000600052601160045260246000fd5b600061233882611990565b915061234383611990565b925082821015612356576123556122fe565b5b828203905092915050565b600061236c82611990565b915061237783611990565b9250827fffffffffffffffffffffffffffffffffffffffffffffffffffffffffffffffff038211156123ac576123ab6122fe565b5b828201905092915050565b7f4552433732313a20617070726f766520746f2063616c6c657200000000000000600082015250565b60006123ed6019836118e0565b91506123f8826123b7565b602082019050919050565b6000602082019050818103600083015261241c816123e0565b9050919050565b7f4552433732313a207472616e7366657220746f206e6f6e20455243373231526560008201527f63656976657220696d706c656d656e7465720000000000000000000000000000602082015250565b600061247f6032836118e0565b915061248a82612423565b604082019050919050565b600060208201905081810360008301526124ae81612472565b9050919050565b600081905092915050565b60006124cb826118d5565b6124d581856124b5565b93506124e58185602086016118f1565b80840191505092915050565b60006124fd82856124c0565b915061250982846124c0565b91508190509392505050565b7f4552433732313a206d696e7420746f20746865207a65726f2061646472657373600082015250565b600061254b6020836118e0565b915061255682612515565b602082019050919050565b6000602082019050818103600083015261257a8161253e565b9050919050565b7f4552433732313a20746f6b656e20616c7265616479206d696e74656400000000600082015250565b60006125b7601c836118e0565b91506125c282612581565b602082019050919050565b600060208201905081810360008301526125e6816125aa565b9050919050565b7f45524337323155524953746f726167653a2055524920736574206f66206e6f6e60008201527f6578697374656e7420746f6b656e000000000000000000000000000000000000602082015250565b6000612649602e836118e0565b9150612654826125ed565b604082019050919050565b600060208201905081810360008301526126788161263c565b9050919050565b600081519050919050565b600082825260208201905092915050565b60006126a68261267f565b6126b0818561268a565b93506126c08185602086016118f1565b6126c981611924565b840191505092915050565b60006080820190506126e96000830187611a25565b6126f66020830186611a25565b6127036040830185611b3b565b8181036060830152612715818461269b565b905095945050505050565b60008151905061272f81611846565b92915050565b60006020828403121561274b5761274a611810565b5b600061275984828501612720565b91505092915050565b600061276d82611990565b91507fffffffffffffffffffffffffffffffffffffffffffffffffffffffffffffffff820361279f5761279e6122fe565b5b600182019050919050565b7f4e487b7100000000000000000000000000000000000000000000000000000000600052601260045260246000fd5b60006127e482611990565b91506127ef83611990565b9250826127ff576127fe6127aa565b5b828204905092915050565b600061281582611990565b915061282083611990565b9250826128305761282f6127aa565b5b828206905092915050565b7f4e487b7100000000000000000000000000000000000000000000000000000000600052603260045260246000fdfea264697066735822122070f3724d878371ff6086d71c14a4c8ee86ee4749685862fb33ba93bcf3203a2e64736f6c634300080d0033",
    "immutableReferences": {},
    "source": "// SPDX-License-Identifier: MIT\r\npragma solidity ^0.8.13;\r\n\r\nimport \"@openzeppelin/contracts/token/ERC721/ERC721.sol\";\r\nimport \"@openzeppelin/contracts/token/ERC721/extensions/ERC721URIStorage.sol\";\r\nimport \"@openzeppelin/contracts/utils/Counters.sol\";\r\n\r\ncontract NFT is ERC721, ERC721URIStorage {\r\n    using Counters for Counters.Counter;\r\n\r\n    Counters.Counter private _tokenIdCounter;\r\n\r\n    constructor() ERC721(\"NFT\", \"$$$\") {}\r\n\r\n    function mint(address to, string memory uri) public returns(uint){\r\n        _tokenIdCounter.increment();\r\n        uint256 tokenId = _tokenIdCounter.current();\r\n        _mint(to, tokenId);\r\n        _setTokenURI(tokenId, uri);\r\n        return tokenId;\r\n    }\r\n\r\n    // The following functions are overrides required by Solidity.\r\n\r\n    function _burn(uint256 tokenId) internal override(ERC721, ERC721URIStorage) {\r\n        super._burn(tokenId);\r\n    }\r\n\r\n    function tokenURI(uint256 tokenId)\r\n        public\r\n        view\r\n        override(ERC721, ERC721URIStorage)\r\n        returns (string memory)\r\n    {\r\n        return super.tokenURI(tokenId);\r\n    }\r\n}\r\n",
    "sourcePath": "D:\\c0de\\blockchain\\resume-nft\\truffle\\contracts\\NFT.sol",
    "compiler": {
        "name": "solc",
        "version": "0.8.13+commit.abaa5c0e.Emscripten.clang"
    },
    "schemaVersion": "3.4.8",
    "updatedAt": "2022-09-01T11:10:57.853Z",
    "networkType": "ethereum",
    "devdoc": {
        "kind": "dev",
        "methods": {
            "approve(address,uint256)": {
                "details": "See {IERC721-approve}."
            },
            "balanceOf(address)": {
                "details": "See {IERC721-balanceOf}."
            },
            "getApproved(uint256)": {
                "details": "See {IERC721-getApproved}."
            },
            "isApprovedForAll(address,address)": {
                "details": "See {IERC721-isApprovedForAll}."
            },
            "name()": {
                "details": "See {IERC721Metadata-name}."
            },
            "ownerOf(uint256)": {
                "details": "See {IERC721-ownerOf}."
            },
            "safeTransferFrom(address,address,uint256)": {
                "details": "See {IERC721-safeTransferFrom}."
            },
            "safeTransferFrom(address,address,uint256,bytes)": {
                "details": "See {IERC721-safeTransferFrom}."
            },
            "setApprovalForAll(address,bool)": {
                "details": "See {IERC721-setApprovalForAll}."
            },
            "supportsInterface(bytes4)": {
                "details": "See {IERC165-supportsInterface}."
            },
            "symbol()": {
                "details": "See {IERC721Metadata-symbol}."
            },
            "transferFrom(address,address,uint256)": {
                "details": "See {IERC721-transferFrom}."
            }
        },
        "version": 1
    },
    "userdoc": {
        "kind": "user",
        "methods": {},
        "version": 1
    }
}